{
  "contractName": "Kryptobird",
  "abi": [
    {
      "inputs": [],
      "stateMutability": "nonpayable",
      "type": "constructor"
    },
    {
      "anonymous": false,
      "inputs": [
        {
          "indexed": true,
          "internalType": "address",
          "name": "from",
          "type": "address"
        },
        {
          "indexed": true,
          "internalType": "address",
          "name": "to",
          "type": "address"
        },
        {
          "indexed": true,
          "internalType": "uint256",
          "name": "tokenId",
          "type": "uint256"
        }
      ],
      "name": "Transfer",
      "type": "event"
    },
    {
      "inputs": [],
      "name": "getName",
      "outputs": [
        {
          "internalType": "string",
          "name": "",
          "type": "string"
        }
      ],
      "stateMutability": "view",
      "type": "function",
      "constant": true
    },
    {
      "inputs": [],
      "name": "getSymbol",
      "outputs": [
        {
          "internalType": "string",
          "name": "",
          "type": "string"
        }
      ],
      "stateMutability": "view",
      "type": "function",
      "constant": true
    },
    {
      "inputs": [
        {
          "internalType": "uint256",
          "name": "",
          "type": "uint256"
        }
      ],
      "name": "kryptoBirdz",
      "outputs": [
        {
          "internalType": "string",
          "name": "",
          "type": "string"
        }
      ],
      "stateMutability": "view",
      "type": "function",
      "constant": true
    },
    {
      "inputs": [
        {
          "internalType": "string",
          "name": "_kryptoBird",
          "type": "string"
        }
      ],
      "name": "mint",
      "outputs": [],
      "stateMutability": "nonpayable",
      "type": "function"
    }
  ],
  "bytecode": "0x608060405234801561001057600080fd5b50604080518082018252600a81526912dc9e5c1d1bd09a5c9960b21b60208083019182528351808501909452600584526412d092549160da1b9084015281519192918391839161006291600091610080565b508051610076906001906020840190610080565b5050505050610153565b82805461008c90610119565b90600052602060002090601f0160209004810192826100ae57600085556100f4565b82601f106100c757805160ff19168380011785556100f4565b828001600101855582156100f4579182015b828111156100f45782518255916020019190600101906100d9565b50610100929150610104565b5090565b5b808211156101005760008155600101610105565b600181811c9082168061012d57607f821691505b60208210810361014d57634e487b7160e01b600052602260045260246000fd5b50919050565b6106f5806101626000396000f3fe608060405234801561001057600080fd5b506004361061004c5760003560e01c8063150704011461005157806317d7de7c1461006f57806393ab6e5614610077578063d85d3d271461008a575b600080fd5b61005961009f565b6040516100669190610511565b60405180910390f35b610059610131565b610059610085366004610544565b610140565b61009d610098366004610573565b6101ec565b005b6060600180546100ae90610624565b80601f01602080910402602001604051908101604052809291908181526020018280546100da90610624565b80156101275780601f106100fc57610100808354040283529160200191610127565b820191906000526020600020905b81548152906001019060200180831161010a57829003601f168201915b5050505050905090565b6060600080546100ae90610624565b6004818154811061015057600080fd5b90600052602060002001600091509050805461016b90610624565b80601f016020809104026020016040519081016040528092919081815260200182805461019790610624565b80156101e45780601f106101b9576101008083540402835291602001916101e4565b820191906000526020600020905b8154815290600101906020018083116101c757829003601f168201915b505050505081565b6005816040516101fc919061065e565b9081526040519081900360200190205460ff16156102615760405162461bcd60e51b815260206004820181905260248201527f6572726f722d204b727970746f4269726420616c72656164792045786973747360448201526064015b60405180910390fd5b6004805460018101825560009190915281516102a4917f8a35acfbc15ff81a39ae7d344fd709f28e8600b4aa8c65c6b64bfe7fe36bd19b01906020840190610448565b506004546000906102b790600190610690565b90506102c333826102f9565b60016005836040516102d5919061065e565b908152604051908190036020019020805491151560ff199092169190911790555050565b6001600160a01b03821661035b5760405162461bcd60e51b8152602060048201526024808201527f4552433732313a206d696e74696e6720746f20746865207a65726f2061646472604482015263032b9b9960e51b6064820152608401610258565b6000818152600260205260409020546001600160a01b0316156103c05760405162461bcd60e51b815260206004820152601c60248201527f4552433732313a20746f6b656e20616c7265616479206d696e746564000000006044820152606401610258565b600081815260026020908152604080832080546001600160a01b0319166001600160a01b0387169081179091558352600390915281208054600192906104079084906106a7565b909155505060405181906001600160a01b038416906000907fddf252ad1be2c89b69c2b068fc378daa952ba7f163c4a11628f55a4df523b3ef908290a45050565b82805461045490610624565b90600052602060002090601f01602090048101928261047657600085556104bc565b82601f1061048f57805160ff19168380011785556104bc565b828001600101855582156104bc579182015b828111156104bc5782518255916020019190600101906104a1565b506104c89291506104cc565b5090565b5b808211156104c857600081556001016104cd565b60005b838110156104fc5781810151838201526020016104e4565b8381111561050b576000848401525b50505050565b60208152600082518060208401526105308160408501602087016104e1565b601f01601f19169190910160400192915050565b60006020828403121561055657600080fd5b5035919050565b634e487b7160e01b600052604160045260246000fd5b60006020828403121561058557600080fd5b813567ffffffffffffffff8082111561059d57600080fd5b818401915084601f8301126105b157600080fd5b8135818111156105c3576105c361055d565b604051601f8201601f19908116603f011681019083821181831017156105eb576105eb61055d565b8160405282815287602084870101111561060457600080fd5b826020860160208301376000928101602001929092525095945050505050565b600181811c9082168061063857607f821691505b60208210810361065857634e487b7160e01b600052602260045260246000fd5b50919050565b600082516106708184602087016104e1565b9190910192915050565b634e487b7160e01b600052601160045260246000fd5b6000828210156106a2576106a261067a565b500390565b600082198211156106ba576106ba61067a565b50019056fea26469706673582212208f37de3826154d2295388b6767b974fb0b7c68b97f27349d546ad8060c502da564736f6c634300080d0033",
  "immutableReferences": {},
  "source": "// SPDX-License-Identifier: MIT\npragma solidity ^0.8.0;\n\nimport './ERC721Connector.sol';\n\ncontract Kryptobird is ERC721Connector{\n    \n    // NFT  \n    string [] public kryptoBirdz;\n    \n    mapping(string => bool) _kryptoBirdzExists;\n    \n    function mint(string memory _kryptoBird) public{\n        \n        require(!_kryptoBirdzExists[_kryptoBird], 'error- KryptoBird already Exists');\n        \n        kryptoBirdz.push(_kryptoBird);\n        uint _id = kryptoBirdz.length -1;\n        \n        _mint(msg.sender, _id);\n        _kryptoBirdzExists[_kryptoBird] = true;\n    \n    }\n    \n    constructor() ERC721Connector('KryptoBird','KBIRD'){\n    }\n}",
  "sourcePath": "/workspace/solidity/nft-marketplace/src/contracts/KryptoBirdz.sol",
  "compiler": {
    "name": "solc",
    "version": "0.8.13+commit.abaa5c0e.Emscripten.clang"
  },
  "schemaVersion": "3.4.16",
  "updatedAt": "2024-06-03T09:14:53.162Z",
  "networkType": "ethereum",
  "devdoc": {
    "kind": "dev",
    "methods": {},
    "version": 1
  },
  "userdoc": {
    "kind": "user",
    "methods": {},
    "version": 1
  }
}